:020000040800F2
:10000000700700209101000849150008E513000859
:1000100045150008CD040008511800080000000034
:10002000000000000000000000000000A91500080A
:100030002D0700080000000079150008DD150008F4
:10004000AB010008AB010008AB010008AB010008E0
:10005000AB010008AB010008AB010008AB010008D0
:10006000AB010008AB010008AB010008AB010008C0
:10007000AB010008AB010008AB010008AB010008B0
:10008000AB010008AB010008AB010008AB010008A0
:10009000AB010008AB010008AB010008AB01000890
:1000A000AB010008AB010008AB010008AB01000880
:1000B000AB010008AB010008AB010008AB01000870
:1000C000AB010008AB010008AB010008AB01000860
:1000D000AB010008AB010008AB010008AB01000850
:1000E000AB010008AB010008AB01000800F002F80A
:1000F00000F03FF80AA090E8000C82448344AAF183
:100100000107DA4501D100F034F8AFF2090EBAE880
:100110000F0013F0010F18BFFB1A43F0010318473B
:100120004C1800006C180000103A24BF78C878C141
:10013000FAD8520724BF30C830C144BF04680C60ED
:10014000704700000023002400250026103A28BF35
:1001500078C1FBD8520728BF30C148BF0B60704739
:10016000642900F07D80002070471FB51FBD10B5C9
:1001700010BD00F070F91146FFF7F7FF01F094FB96
:1001800000F08EF903B4FFF7F2FF03BC00F096F91C
:100190000948804709480047FEE7FEE7FEE7FEE71B
:1001A000FEE7FEE7FEE7FEE7FEE7FEE70448054957
:1001B000054A064B7047000045160008ED00000890
:1001C00070010020700700207003002070030020E1
:1001D0000FB41CB5074B06AA7B44694600900598EE
:1001E00000F021F90020694600F030F91CBC5DF8F0
:1001F00014FB0000710200002DE9F0410E46044698
:10020000002020622046E168884730B3252805D0C9
:10021000D4E901219047206A401CF2E7E1682046BA
:1002200000278847050018D0A5F14100192802D8F9
:1002300020354FF400673246294620462760FFF7F5
:100240008FFF40B1012804D0F61D26F007060836BE
:10025000D8E7361DD6E72846DAE7206ABDE8F08100
:100260002DE9F0410646002410687529314616A58F
:1002700010D0AFF30080002802DA404213A507E057
:1002800031688A0701D512A502E0490704D511A5F6
:10029000012401E0AFF3008000210A2206F12407C7
:1002A00009E0B0FBF2FCB0FBF2F302FB1C003030C3
:1002B00078541846491C0028F3D123462A46304674
:1002C000BDE8F04100F051B8000000002D00000032
:1002D0002B0000002000000010B5431C02E010F8C5
:1002E000011B71B18107FAD14FF0013202C88C1A9B
:1002F0008C4314EAC211F9D0C01A0A0603D0C01EFA
:1003000010BDC01A10BD0A0401D0801E10BD090224
:10031000FCD0401E10BD4FF0000200B513469446BD
:100320009646203922BFA0E80C50A0E80C50B1F14D
:100330002001BFF4F7AF090728BFA0E80C5048BF61
:100340000CC05DF804EB890028BF40F8042B08BFFF
:10035000704748BF20F8022B11F0804F18BF00F8FB
:10036000012B70477047704770472DE9F0470D46E5
:1003700099469246044600F124080168880604D58F
:10038000E06921F01001216000E00120A84201DDB8
:10039000471B00E00027A1697A1902EB0900081A3F
:1003A000A0612078C00602D42046AFF3008000266A
:1003B00008E0D4E901211AF806009047206A401CA1
:1003C000761C20624E45F4DB2078C0060AD5204614
:1003D000AFF3008006E0D4E9012130209047206A85
:1003E000401C2062381EA7F10107F4DC07E0D4E9C5
:1003F000012118F805009047206A401C2062281E41
:10040000A5F10105F3DC2046AFF30080207800065B
:1004100002D50220BDE8F0870120FBE701694A1CF4
:1004200002610878704700B58FB0CDE90131002135
:10043000059105497944CDE9031011466846FFF757
:10044000DBFE0FB000BD0000E5FFFFFF0A6802F809
:10045000010B0A607047754600F02CF8AE460500A7
:100460006946534620F00700854618B020B5FFF7CF
:100470009DFEBDE820404FF000064FF000074FF012
:1004800000084FF0000BAC46ACE8C009ACE8C0096E
:10049000ACE8C009ACE8C00921F007018D467047FF
:1004A00010B50446AFF300802046BDE81040FFF7CA
:1004B00069BE000000487047100000200149182064
:1004C000ABBEFEE72600020070470000FEE700001A
:1004D0002DE9F04F8FB000F087FF40F2D80BC2F249
:1004E000000B00254FF028080BF1100A4FF001090E
:1004F000002600BF00F05EF80028FBD0CDF8388061
:10050000504650F8042B694641F8042B50F8042B50
:1005100041F8042B50F8042B41F8042B50F8042B1D
:1005200041F8042B50F8042B41F8042B50F8042B0D
:1005300041F8042B50F8042B41F8042B50F8042BFD
:1005400041F8042B50F8042B41F8042B50F8042BED
:1005500041F8042B50F8042B41F8042B50F8042BDD
:1005600041F8042B50F8042B41F8042B50F8042BCD
:1005700041F8042B9BE80F0000F0DAF800F01AF8BD
:100580000446C5F1070009FA00F700BF00F012F8B1
:100590000028FBD146EA0700002C05F1010508BF41
:1005A00026EA0700082D0646A4D180B20FB0BDE8A8
:1005B000F08F000080B540F60000C4F201008021F9
:1005C00000F0F4F980BD000070B590B000F01EFF9F
:1005D00040F60004C4F2010420468021002200F00D
:1005E000EBF9142000F0C0F820468021012200F031
:1005F000E3F900F0F9FE40F2D804C2F2000428202A
:1006000004F110050E90284650F8042B694641F875
:10061000042B50F8042B41F8042B50F8042B41F81C
:10062000042B50F8042B41F8042B50F8042B41F80C
:10063000042B50F8042B41F8042B50F8042B41F8FC
:10064000042B50F8042B41F8042B50F8042B41F8EC
:10065000042B50F8042B41F8042B50F8042B41F8DC
:10066000042B50F8042B41F8042B50F8042B41F8CC
:10067000042B50F8042B41F8042B94E80F0000F0F1
:1006800057F8FFF797FF40F270060028C2F2000605
:1006900044D15A200E9055F8041B684640F8041BBC
:1006A00055F8041B40F8041B55F8041B40F8041BC4
:1006B00055F8041B40F8041B55F8041B40F8041BB4
:1006C00055F8041B40F8041B55F8041B40F8041BA4
:1006D00055F8041B40F8041B55F8041B40F8041B94
:1006E00055F8041B40F8041B55F8041B40F8041B84
:1006F00055F8041B40F8041B55F8041B40F8041B74
:1007000055F8041B40F8041B94E80F0000F010F8A3
:10071000FFF750FF002818BF01203080FFF74AFF85
:100720000028FBD1308810B070BD00007047000079
:1007300084B010B50DF1080C8CE80700149C02A8D9
:10074000059300F0E9FC029800214162416AA14250
:10075000FCD3BDE8104004B070470000EFF31080F8
:1007600072B600BFFEE70000B0B5044600F02AF9FB
:10077000054640F20400C2F200000078611C18BF78
:10078000044400BF00F01EF9401BA042FAD3B0BDE4
:100790002DE9F04F84B00E680290002E00F0038126
:1007A00040F20C4E40F2004741F200420298C4F27F
:1007B000010EC4F20107C4F2010204230024012542
:1007C0004FF0000A4FF00009904208BF0323009346
:1007D0000AE000BF01250E680AF1010A36FA0AF2A2
:1007E00004F1040400F0DF8005FA0AFB16EA0B08A6
:1007F000F1D04A684FF6FF73C1F210039A4211DC40
:10080000122A54D80298DFE802F0350A43475353BE
:1008100053535353535353535353534A4E00D1F8E6
:100820000C9045E04FF6FF73C1F221039A4210DCB1
:100830000023C1F2110302989A421BD00023C1F297
:1008400012039A4216D00023C1F221039A4211D01A
:100850002EE00023C1F2220302989A420AD000231C
:10086000C1F231039A4205D00023C1F232039A4209
:100870001ED100BF8A6842B1012A14BFC0F814B06B
:10088000C0F810B04FF0080912E04FF004090FE073
:10089000CA6802F108090BE04FF0000908E0CA68D5
:1008A00002F1040904E0CA6802F10C0900E00298B0
:1008B00022460346B8F5807F24BF203A04331D68E2
:1008C0004FF00F0C0CFA02F6B54309FA02F22A4374
:1008D0001A60CA79D2067FF57DAF41F21803CDF8D0
:1008E0000490C4F202031A68F34642F001021A604F
:1008F0001A684FEA9A0E02F001020392039AA7F5D2
:100900007E72B94652F82E3004F00C0740F600060D
:100910000CFA07F5C4F20106B04223EA050C10D028
:1009200040F60043C4F2010398420CD041F20003A8
:10093000C4F201039842009B4FF0010508BF022357
:1009400003E0002300E001230125BB4043EA0C0340
:1009500042F82E304E684F46F202D9F8082054BFB4
:1009600022EA080242EA0802DE46DDF80490BA6094
:10097000DEF80020B30254BF22EA080242EA08026D
:10098000CEF800207A68B30354BF22EA080242EA94
:1009900008027A603A68F30354BF22EA080242EA86
:1009A00008023A6017E704B0BDE8F08F806808409D
:1009B00018BF012070470000002A08BF0904016128
:1009C0007047000040F26C10C2F2000000687047EF
:1009D00040F2040040F26C11C2F20000C2F20001C9
:1009E00000780A68104408607047000080B542F241
:1009F0000000C4F20200016841F010010160032010
:100A000000F062F80F2000F005F800F02BF800204D
:100A100080BD0000B0B540F20402C2F2000240F214
:100A200000011278C2F200014FF47A730968B3FB37
:100A3000F2F20446B1FBF2F1084600F0E5FA0F2CA1
:100A40004FF001050CD858B94FF0FF302146002275
:100A5000002500F029F840F20800C2F2000004600E
:100A60002846B0BD82B041F21800C4F2020001680D
:100A7000022241F001010160016801F001010191D0
:100A80000199416841F080514160406800F0805018
:100A9000009000980420C4F20100016862F31A611A
:100AA000016002B07047000070B514460D4606465E
:100AB00000F0D0FE2946224600F048FD01463046AF
:100AC00000F0D0FE70BD000080B500F0DDFE80BDFE
:100AD0002DE9F04381B0002800F0878042F2000841
:100AE000C4F202080446D8F800000D4600F00700E2
:100AF00088420CD2D8F8000020F007002843C8F83C
:100B00000000D8F8000000F00700A8426DD120686E
:100B100041F204098107C4F2020917D5410705D53E
:100B2000D9F8001041F4E061C9F80010010705D5BB
:100B3000D9F8001041F46051C9F80010D9F800103C
:100B4000A26821F0F0011143C9F80010C00745D197
:100B5000D8F8000000F00700A8420CD9D8F800002F
:100B600020F007002843C8F80000D8F8000000F083
:100B70000700A84239D12068410707D5D9F80010ED
:100B8000E26821F4E0611143C9F80010000708D5BC
:100B9000D9F80000216920F4605040EAC100C9F88A
:100BA000000000F077F8D9F8001041F65412C1F3B4
:100BB0000311C0F60002515C40F2000220FA01F17C
:100BC00040F20800C2F200000068C2F200021160A8
:100BD000FFF720FF002001B0BDE8F0836068012826
:100BE00007D159F8041C89030CD4012001B0BDE8D9
:100BF000F08359F8041C022802D18901F5D501E0DF
:100C00008907F2D5D9F8001021F003010843C9F88B
:100C10000000FFF7D7FE064641F28837D9F80000FA
:100C2000616800F00C00B0EB810F91D0FFF7CAFEB5
:100C3000801BB842F2D9032001B0BDE8F083000068
:100C400040F20000C2F200000068704780B5FFF774
:100C5000F7FF41F20401C4F20201096841F664128F
:100C6000C1F30221C0F60002515CC84080BD000003
:100C700080B5FFF7E5FF41F20401C4F20201096803
:100C800041F66412C1F3C221C0F60002515CC840B3
:100C900080BD000041F2040CC4F2020CDCF800300C
:100CA00003F00C00082841F20020C0F27A0018BFBF
:100CB0007047C3F383420AA18A5CD90305D440F686
:100CC0000010C0F23D0050437047DCF8001008A34C
:100CD000C1F34041595C5043B0FBF1F0704700BF95
:100CE00002030405060708090A0B0C0D0E0F10106D
:100CF000010200002DE9F04182B0002800F0C4801C
:100D00000446007841F20006C007C4F2020643D050
:100D1000706800F00C00042817D0706800F00C0018
:100D2000082802D17068C0030FD465689DB1B5F57D
:100D3000803F06D03068B5F5A02F0DD140F480205B
:100D40003060306840F480300CE03068800323D598
:100D5000606808BB98E0306820F48030306030680C
:100D600020F480203060FFF72DFE002D054610D0C6
:100D70003068800310D4FFF725FE401B6428F7D9A4
:100D800008E100BFFFF71EFE401B64284FF0030080
:100D900077D830688003F5D42078800718D570683C
:100DA00010F00C0F07D0706800F00C00082826D156
:100DB0007068C00323D43068800702D520690128F9
:100DC00062D13068616920F0F80040EAC10030600B
:100DD000207800073DD5A06938B30020C4F2422036
:100DE0000121C0F88014FFF7EDFD0546706A800709
:100DF0002DD4FFF7E7FD401B0228F7D9CAE0206990
:100E0000002840F20000C4F2422000F09A80012144
:100E10000160FFF7D7FD054630688007D1D4FFF7A2
:100E2000D1FD401B0228F7D9B4E00020C4F24220D3
:100E30000021C0F88014FFF7C5FD0546706A8007E1
:100E400007D5FFF7BFFD401B0228F7D9A2E000F04D
:100E500095FB207840071BD4E5698DB1706800F0E0
:100E60000C0008284CD1012D0ED07068216A00F4C6
:100E700080328A4208D1616A00F47010884203D13E
:100E8000002002B0BDE8F081012002B0BDE8F08191
:100E9000F069C0000BD4F0694FF0010840F08050B9
:100EA000F061F06900F080500190019801E04FF08E
:100EB000000847F20007C4F200073868C00510D4E4
:100EC000386840F480703860FFF77CFD054600BF4D
:100ED0003868C00505D4FFF775FD401B6428F7D9B5
:100EE00058E0E568002D3DD0012D05D0306A052D74
:100EF00039D140F004003062306A40F0010038E03F
:100F00000027C4F2422700203866FFF75BFD022D60
:100F100005460BD13068800154D5FFF753FD401BC7
:100F200002284FF00300F5D9ABE700BF306880011D
:100F3000A6D5FFF747FD401B02284FF00300F5D967
:100F40009FE700210160FFF73DFD054630688007FF
:100F50007FF53EAFFFF736FD401B02284FF0030040
:100F6000F4D98EE7306A20F001003062306A20F058
:100F700004003062FFF726FD002D054641F2883758
:100F800014D000BF306A800713D4FFF71BFD401B4D
:100F9000B842F7D9032002B0BDE8F081FFF712FD97
:100FA000401BB8424FF003003FF66BAF306A80073A
:100FB000F4D4B8F1000F3FF44FAFF06920F0805047
:100FC000F06149E7206AB0F5803F05D17168A268F9
:100FD00021F40031114371607168626A21F4741167
:100FE00010430843706001203866FFF7EBFC0446AD
:100FF000306880013FF544AFFFF7E4FC001B022896
:101000004FF00300F4D93CE780B500F0CFFA80BD83
:1010100010B590F83C20012A4FF0020231D0012394
:1010200080F83C3080F83D200268D2F804E0D2F825
:1010300008C00C682EF07003234340F2FF74C4F222
:101040000004A242536005DCB2F1804F0ED040F2A2
:10105000004307E042F60043C4F201039A4205D080
:1010600040F60003C4F200039A4204D149682CF010
:101070008003194391600121002280F83D1080F81F
:101080003C20104610BD0000002804BF012070471E
:1010900010B5044690F83D0028B9002084F83C00C3
:1010A000204600F01FF8022084F83D002068211D32
:1010B00000F0CAFA012084F8460084F83E0084F863
:1010C0003F0084F8400084F8410084F8420084F82E
:1010D000430084F8440084F8450084F83D00002073
:1010E00010BD000081B0006840F60001C4F20001AC
:1010F000884201D001B0704741F21C00C4F20200E6
:10110000016841F004010160006800F004000090F3
:10111000009801B07047000090F83D1001291CBFF5
:1011200001207047022180F83D10006840F2FF71F5
:10113000C4F20001884205DCB0F1804F0ED040F2CD
:10114000004107E042F60041C4F20101884205D0A7
:1011500040F60001C4F20001884206D1816801F026
:101160000701062904BF00207047016841F0010112
:10117000016000207047000010B5044690F83C0064
:1011800001284FF0020008BF10BD012284F83C2066
:1011900084F83D0020684FF6777382689A43826036
:1011A0000A684F2A0FDC1F2A22DD202A23D0302A8A
:1011B00021D0402A4DD14B68CA68194600F09EFAEA
:1011C000206840213BE06F2A17DDB2F5005F20D098
:1011D000B2F5805F2AD0702A3BD1D1E9012CCB68CF
:1011E000614600F077FA2068816841F077011AE0E3
:1011F0000AB1102A2DD1114621E0502A18D0602AB8
:1012000027D14B68CA68194600F08AFA2068602125
:1012100015E0D1E9012CCB68614600F05BFA20684B
:10122000816841F48041816000200BE0002009E0EA
:101230004B68CA68194600F061FA2068502100F036
:1012400055FA0020012184F83D10002184F83C105B
:1012500010BD0120F6E70000002804BF0120704700
:1012600010B5044690F8410028B9002084F84000E9
:10127000204600F021F8242084F841002068C1684D
:1012800021F40051C160204600F05CFA2068016939
:1012900021F490410161416921F02A014161C16855
:1012A00041F40051C16000202021606484F84110A5
:1012B00084F84210606310BD70B586B0002640F619
:1012C00000040596CDE90366C4F20104006804F544
:1012D00040518842029601D006B070BD41F218001C
:1012E000C4F20200016802AD41F48041016001686E
:1012F00001F4804101910199016841F0040101600C
:101300000068294600F00400019001984FF4007035
:10131000029002200390032005902046FFF738FA40
:101320004FF48060CDE90206204629460496FFF777
:101330002FFA06B070BD00002DE9F041044690F888
:10134000410020281CBF0220BDE8F0810E46002984
:101350004FF0010044D01746002A08BFBDE8F081D5
:101360004FF0000821201D46C4F8448084F8410055
:10137000FFF728FBA784E784A1680746B1F5805FE3
:101380000DD12069002814BF3046B046064606E05D
:1013900016F8010B21684860E08C0138E084E08C8D
:1013A00080B1204680213A462B4600F013FA80B9DE
:1013B000002EEDD138F8020B21686FF35F204860F2
:1013C0000026E9E7204640213A462B4600F002FA83
:1013D00010B10320BDE8F081202084F841000020F6
:1013E000BDE8F081FEE7000080B584B000200390E6
:1013F000CDE901008020009040F60000C4F2010019
:101400006946FFF7C5F904B080BD000080B584B01F
:101410000020029080200090012001900220039083
:1014200040F60000C4F201006946FFF7B1F904B0CC
:1014300080BD000070B586B0002541F21800CDE9EE
:101440000455CDE90255C4F20200016840F60004DB
:1014500041F0200101600168C4F2010401F02001A3
:10146000019101990168002241F0040101600068C6
:10147000802100F004000190019820468026FFF7AB
:101480009BFA01200296CDE903050220059002A9EE
:101490002046FFF77DF906B070BD000080B586B02C
:1014A00040F2D80040F600020021C2F20000C4F26F
:1014B000000247234FF6FF7CCDE90411CDE902116C
:1014C000CDE90011C0E90023C0E9021C016181617E
:1014D000FFF7DAFDC0B94FF48050029040F2D80017
:1014E000C2F2000002A9FFF747FE68B90020CDE96B
:1014F000000040F2D800C2F200006946FFF788FD04
:10150000002804BF06B080BDFFF728F980B540F27F
:10151000201043F60001C2F20000C4F201010023D2
:101520004FF00C0C4FF4165280E80E00C0E9033364
:10153000C0E905C3C361FFF78FFE002808BF80BD67
:10154000FFF70CF9FEE70000FEE7000000F00700DF
:1015500080F00703042B28BF04234FF0FF3C03381F
:101560000CFA03F338BF0020994381400CFA00F0D5
:1015700022EA0000084370477047000081B040F243
:101580000000C2F20000006844F6D351C1F26201CB
:10159000A0FB0101480A009000BF0098411E0028EE
:1015A0000091F9D101B0704770470000B0B5013823
:1015B0000024B4EB106F1CBF0120B0BD4EF210052B
:1015C000CEF2000568604FF0FF300F2100F04AF9BD
:1015D0000720AC6028602046B0BD000080B5FFF752
:1015E000F7F980BD70B590B006AC20462821FEF713
:1015F00092FE002501204FF480310690CDE90715B9
:101600000A9002264FF4E010CDE90D610F902046BC
:101610000595CDE90355CDE90155FFF76BFB78B989
:101620000F20CDE901064FF480600395CDE9040554
:1016300001A80221FFF74CFA002804BF10B070BDCA
:10164000FFF78CF87047000010B540F2FF7E03688A
:10165000C4F2000E42F6004C7045C4F2010C05DCE9
:10166000B0F1804F0AD040F2004203E0604505D05F
:1016700040F60002C4F20002904203D14A6823F00F
:1016800070031343704505DCB0F1804F0AD040F27F
:10169000004203E0604505D040F60002C4F20002BB
:1016A000904203D1CA6823F44073134323F08002AD
:1016B0004B69D1F800E08C681A4360450260C4624F
:1016C000C0F828E002D10969CCF83010012141614D
:1016D00010BD0000D0F808C011432CF47F4C41EA43
:1016E000032141EA0C01816070470000826822F00A
:1016F0007002114341F0070181607047D0F820C0AB
:10170000036A23F001030362836923F0F00343EAD1
:1017100002122CF00A031943826101627047000033
:10172000D0F820C0036A23F010030362836923F416
:10173000704343EA02322CF0A00343EA01118261B4
:101740000162704710B504460068D4E902C22369FB
:10175000016921F4405111430161616943EA0C02BE
:101760001143C26841F20C639A431143C16041695D
:10177000A26921F44071114343F60002C4F2010250
:101780009042416102D0FFF761FA01E0FFF770FA81
:101790006268192148439100B0FBF1F048F21F51F3
:1017A000C5F2EB11A0FB01235A096FF0630302FBA2
:1017B0000300322303EB0010A0FB0101F02303EA36
:1017C0005113206803EB0212C1F3431111448160ED
:1017D00010BD00002DE9F041044600680068084093
:1017E000884202D10020BDE8F0811D460E46904699
:1017F0005F1C04E0206800683040B042F2D0002F47
:10180000F8D02DB1FFF7DEF8A0EB0800A842F1D91F
:10181000206850E8030F216820F4D07041E80302EB
:10182000002AF5D1206850E8050F216820F001005A
:1018300041E80502002AF5D1202084F8410084F80F
:101840004200002084F840000320BDE8F081000041
:10185000FEE700004EF60C50CEF200000068C0F328
:10186000022070474EF6145300F00F02CEF2000330
:1018700009011A4400F16043B0F1FF3FC8BF03F50E
:1018800064421170704700004EF60C51CEF2000118
:101890000A684FF6FF031A4060F30A2242F08060A4
:1018A00040F0FD7008607047FFF7A0F8FFF79AFE60
:1018B000FFF7C0FDFFF7F2FDFFF728FE40F26917C2
:1018C00040F2681840F26B1540F26A1A40F2720456
:1018D00040F22016C2F20007C2F20008C2F2000570
:1018E000C2F2000AC2F200040FF25009C2F200066E
:1018F000FEF76AFEFEF7ECFD3870FEF7E9FD88F8AA
:101900000000FEF7E5FD2870FEF7E2FD3A782B783F
:101910008AF8000020464946FEF75AFC2046FEF7AA
:10192000DBFC82B2304621464FF47A73FFF704FDA8
:1019300044F62060FEF718FFDAE700BF2666696507
:101940006C64313D2564266669656C64323D2564AE
:101950000A00000000000000000000000102030473
:10196000060708090000000001020304901900089E
:10197000000000201000000028010008A019000845
:101980001000002060070000440100080000000073
:101990000024F4000100000010000000000000001E
:04000005080000ED02
:00000001FF
